:4000000000400020110000004D0300004D03000080B500AF00F09EF980B500AF224B12221A6001F0DDF8214B181C00F051FF012001F0E6F8302000F09DFF1D4B1D4A1A608A
:400040001D4B8022D2051A601C4B1C4A126802210A431A601A4B1B4A1A601B4B1A4A126808218A431A60FA23DB00181C01F072F8164B181C01F012F9154B164A1A60164B49
:40008000164A1A60164B802212061A60154B8022D2021A60144B40221A60074B8022D2051A60BD4680BDC04630001040001BB70004010B40060000800C020B4078002E4054
:4000C0007C002E402D3E00006CF02E40DC05000000030140007FBB000000014040FF008008010B4000010B401C01014080B582B000AF72B63A4B00221A60FB1D00221A7061
:4001000023E0FB1D1A78131C5B009B185B00354A9B183B603B681A78597809020A43997809040A43DB781B0613431A1C3B6819795B791B020B439BB2101C191C00F08EF94B
:40014000FB1D1A78FB1D01321A70FB1D1B78012BD7D9254A254B101C191C00F08FF9244BEE2212061A60234BC02292041A60224B992212041A60214B992212041A60204B76
:40018000802252051A601F4B1E4A1278D2B202210A43D2B21A701C4B1B4A1278D2B23C218A43D2B214210A43D2B21A70154B154A1278D2B216210A43D2B21A70134BD8229F
:4001C00012041A60124B40221A60124BC02252031A60FFF721FF00F091F9BD4602B080BD6CF02E40000B01000C0B0100100B0100000002400002024000500F4020500F40B8
:4002000028500F4000700F4001700F4008000440000204400802044010B5064C2378002B07D1054B002B02D0044800E000BF0123237010BDB803002000000000F80A010049
:4002400008B5084B002B03D00748084900E000BF07480368002B03D0064B002B00D0984708BDC04600000000F80A0100BC030020C80000200000000080B500AF62B6064B6C
:40028000181C00F017FA054B181C00F06BFB00F08FF901F06FFAFCE7A1020000D902000080B584B000AF786039607B68012B02D0282B00D00DE0002000F054FA3B1C0F338B
:4002C00000221A703B1C0F331B78181C00F01EF8C046BD4604B080BD80B584B000AF786039607A68A823FF339A420CD13B1C0F33002001211A1C00F0A7FB3B1C0F331B7802
:40030000181C00F003F8BD4604B080BD80B582B000AF021CFB1D1A70FB1D1B78012B07D0022B09D0002B0DD1002000F06FF909E0FA2000F06BF905E0FA235B00181C00F0C7
:4003400065F9C046BD4602B080BDC04680B500AFFEE7C04680B586B000AF224B7B61224B3B61204B7B6135E03B691B68FB603B695B68BB603B699B683B6000237B600CE05A
:40038000FB681A68BB681A60BB680433BB60FB680433FB607B6804337B607A683B689A42EED13B69DB683B6000237B6008E0BB6800221A60BB680433BB607B6804337B60AB
:4003C0007A683B689A42F2D13B6910333B617B69013B7B617B69002BC6D101F081F9FFF74BFFFEE7010000009C0F010080B582B000AF154B144A126801218A431A6000239D
:400400007B600FE07B68032B04D8104B7A689200D35800E00E4B0F4A796889008B507B6801337B607B682F2BECD9FFF75FFE0A4B00221A60044B044A126801210A431A60FC
:40044000BD4602B080BDC04600001040000000004D03000000000020C000002080B582B000AF786039607A683B68101C00211A1C01F074F9BD4602B080BDC04680B586B094
:4004800000AF7860396000233B6100237B612EE07B699B007A68D3181B68BB603B1C0F33BA681A70BB68FF229343BB6017E03B695B003A68D3181B781A1CBB68D3183A69EF
:4004C000520039688A1852781A703B6901333B613B1C0F331A783B1C0F33013A1A703B1C0F331B78002BE2D17B6901337B617B69002BCDD0BD4606B080BDC04680B500AF8C
:40050000054B03221A60054B03221A60044B00221A60BD4680BDC0463000304030003140000E3F4080B500AF104B8022D2041A600E4B0E4A12681A60002000F04BF80B4B5F
:400540000A4A12681A600A4B0C221A60012000F089F8084B31221A60FA235B00181C00F047F8FA2000F052F8BD4680BD00012040240120402801204090B583B000AFFC1D66
:4005800000F0AFFC031C2370084B084A126801210A431A60FB1D1B78181C00F0A6FC0120182100F041F8BD4603B090BD0000204080B500AF064B1B78002B04D1FFF7B2FF20
:4005C000034B01221A70FFF7D7FFBD4680BDC046D403002080B582B000AF7860034B7A681204120C1A60BD4602B080BD0801204080B582B000AF7860034B7A681204120C7E
:400600001A60BD4602B080BD1401204080B582B000AF7860034B7A681204120C1A60BD4602B080BD0C01204090B585B000AF786039603C1C0F3400F054FC031C2370084B34
:400640003A687968081C9040021C1A603B1C0F331B78181C00F049FCBD4605B090BDC0460800204080B582B000AF7860024B7A681A60BD4602B080BD3801204080B500AF5D
:40068000064B00221A70064B00221A70054B00221A7000F009F8BD4680BDC046EB1C0020E41C0020EA1C002080B500AF00F056F9BD4680BDB0B58CB002AF78603B1C263363
:4006C00001221A80204B1B78002B04D1FFF7D6FF1D4B01221A707B68002B2DD03A1C0C321A4B111C1A1C1823081C111C1A1C01F02CF83C1C263416481649A6231A013B1C77
:400700000C330625009501F04BF8031C2380124B7A681A603B1C26331B88002B0CD10F4B01221A703C1C26340D4B181C0E2109220BF0DCFD031C23803B1C26331B88181CF4
:40074000BD460AB0B0BDC046D5030020180B0100F90B00008012002078120020E21C00200C0C010090B585B000AF021CFB1D1A70FB1D1B78022B04D93B1C0E3301221A80A3
:400780004BE0294B1B78042B42D1284B1B78DBB21A1C042313403BD1FB1D1B78002B0BD1234B1E221A82224B5B6820221A80204B5B6830225A8010E0FB1D1B78012B0CD170
:4007C0001B4B96221A821A4B5B68C822D2001A80174B5B688022D2015A80164BFA1D12781A703C1C0E34124B181C09F0F3FE031C23803B1C0E331B88002B08D10B4B1B78C2
:40080000DBB204221343DAB2084B1A7005E004E03B1C0E330422FF321A803B1C0E331B88181CBD4605B090BDE21C0020EB1C00201C010020EA1C002080B584B000AF7860E8
:400840000A1CFB1C1A700023BB60BB68002B20D07B689A79BB681A703B1C0F3300221A7012E03B1C0F331B780133BA68D3183A1C0F32127879688A5C1A703B1C0F331A7851
:400880003B1C0F3301321A703B1C0F331B78052BE7D9BD4604B080BD80B582B000AF78607B681B781A1C7B6801331B781B029BB213439BB2181CBD4602B080BD90B585B0E1
:4008C00000AF78603B1C0F3300221A707B689A890B239A4237D17B681A1D7B683C1C0F34101C00211A1C40230BF04EFD031C23703B1C0F331B78002B1DD17B685B68181C7F
:40090000FFF7CAFF031C1A1C022313409BB2002B08D0104B1B68822251007A68081C111C984708E00B4B1B680622111CFF317A68081C111C9847084B1B78DBB20122934332
:40094000DAB2054B1A703B1C0F331B78181CBD4605B090BD78120020EB1C002080B500AFBD4680BD80B582B000AF7860024B7A681A60BD4602B080BDD803002080B584B0CA
:4009800000AF3B1C0F3300221A700E223B1C1A813B1C3A1C0F321A603B1C01229A803B1C181C0021002200230BF0EEFCBD4604B080BDC04680B584B000AF7860204B1B6877
:4009C000002B39D00E227B689B899A4234D17B681B89012B30D17B685B681B78022B2BD87B681A1D7B68101C00211A1C40230BF0CBFC031C002B1FD13B1C08337A681288A1
:400A00001A803B1C083300229A707B681A1D3B1C08335A600A4B1B68A822111CFF313A1C0832081C111C9847064B1B78DBB201229343DAB2034B1A70BD4604B080BDC04671
:400A4000D8030020EB1C002080B586B000AF3A60FB1D021C1A70BB1D0A1C1A703B1C163301221A803B68002B23D0FB1D1B78002B1FD1BB1D1B78012B1BD10E223B1C08332F
:400A80001A81BB1D1B789AB23B1C08339A803B1C08333A681A603B1C0833181C002100220BF03CFC031C002B03D13B1C163300221A803B1C16331B88181CBD4606B080BD67
:400AC00090B585B000AF78603C1C0F347B68181CFFF7F4FE031C2370144B1B78DBB21A1C012313401FD13B1C0F331B78002B16D03B1C083312229A707B689A893B1C0833E8
:400B00001A803B1C08333A1C0F321278DA707B683A1C08321868111C0AF06AFE03E07B6818680AF0CBFEBD4605B090BDEB1C002080B582B000AF7860BD4602B080BDC04681
:400B400080B500AF044B00225A70034B00221A70FFF714FFBD4680BDE81C002080B582B000AF7860BD4602B080BDC04680B500AFBD4680BD80B584B000AF78603B1C0E335D
:400B800000221A707B689B79002B1CD13B1C0F3300221A7012E03B1C0F331B787A68D35C002B04D03B1C0E3301221A700BE03B1C0F331A783B1C0F3301321A703B1C0F33BD
:400BC0001B78052BE7D93B1C0E331B78181CBD4604B080BD80B582B000AF021CBB1D1A80BD4602B080BDC04680B582B000AF7860BD4602B080BDC04680B584B000AF021C65
:400C00003960FB1D1A70A34B1B78DBB201221343DAB2A04B1A70FB1D1B78712B00D91EE19A009D4BD3181B689F463B1C0C3307221A703B1C0C3300225A703B1C0C33181C68
:400C400002F04FF83B1C0C3307221A703B1C0C3301225A703B1C0C33181C02F042F88F4B1B68181CFFF786FF031C002B11D08B4B1B68181C00F082FD884B1B68181C00219B
:400C8000FFF7DAFD854B1B68181C0121FFF7D4FD19E0834B1A78834B1A70834B1A78814B5A70824B1A787F4B9A707E4B181C00F065FD7C4B181C0021FFF7BEFD794B181C09
:400CC0000121FFF7B9FD032009F046FB784B04221A70C5E03B68181CFFF740FFC0E03B681A78744B1A70BBE06A4B1B78DBB21A1C202313400ED1704B1B78102B02D16E4B57
:400D00000522DA706D4B1A786B4B101C191C09F02BFCA5E0A4E03B68181CFFF765FF9FE03B68181CFFF760FF614B02221A7097E05F4B04221A7093E05D4B1B78022B34D0D2
:400D4000544B1B78DBB21A1C012313402DD0514B1B78DBB21A1C042313400BD0544B03221A704C4B1B78DBB204229343DAB2494B1A701AE0474B1B78DBB21A1C08231340B8
:400D80000BD04B4B04221A70424B1B78DBB208229343DAB23F4B1A7007E0454B1B78032B03D1434B04221A705AE059E03B681B88181CFFF70FFF53E0404A3B68111C1A1CC7
:400DC0000223081C111C1A1C00F0BFFC3B4B1B785A003B4BD3183B4A111C1A1C0223081C111C1A1C00F0B1FCFFF7C0FE38E0FFF7A7FE35E03B685B88162B05D83B1C0E33CF
:400E00003A6852881A8003E03B1C0E3317221A803B683A1C0E321288198800230904090C1B0C1B040B43181C111C0AF0EDFC17E03B68181CFFF744FE12E0164B1B78DBB244
:400E40001A1C0123134004D03B68181CFFF7B2FD06E005E03B68181CFFF76AFE00E0C0460C4B1B78DBB21A1C112313400FD0094B1B78DBB201229343DAB2064B1A70124B4B
:400E80001B68FA1D11783A68081C111C9847BD4604B080BDEB1C0020800D0100380100207CF1FF0F300100207DF1FF0F7BF1FF0FE21C0020E41C002084010020E81C002072
:400EC000000C0100E01C002078120020000000000230800803D00138FDD1C046C046C0467047EFF3108072B6704780F31088704780B500AF0B4B0B4A126801218A431A603D
:400F0000094B094A126830218A4310210A431A60054B054A126807218A4301210A431A60BD4680BD00F02E4000FF2E4080B500AF0E4B0E4A126802218A431A600C4B0C4A52
:400F4000126807218A4302210A431A60084B084A126830218A4320210A431A60034B034A126801210A431A60BD4680BD00F02E4000FF2E4090B585B000AF78607B68022BB9
:400F800000D8BAE07B68302B00D9B6E05E4B1B78DBB21A1C7B689A420AD35C4A3B1C0F3312781A705A4A3B1C0E3312781A703FE0584B1B78DBB21A1C7B689A420AD3564A80
:400FC0003B1C0F3312781A70544A3B1C0E3312781A702DE0524B1B78DBB21A1C7B689A420AD3504A3B1C0F3312781A704E4A3B1C0E3312781A701BE04C4B1B78DBB21A1CEB
:401000007B689A420AD34A4A3B1C0F3312781A70484A3B1C0E3312781A7009E0464A3B1C0F3312781A70454A3B1C0E3312781A707B68DA1E3B1C0C3341498A5C1A703C1C71
:401040000B34FFF74EFF031C23703B1C0C331B782F2B0DD97B682A2B0AD93A4B19221A600520FFF735FF3B1C0D3319221A7007E0344B1B68D9B23B1C0D333F220A401A7093
:401080003A1C0C323B1C0D3312781B789A4208D22C4B7A68033A2A498A5C1A600520FFF717FF294B7A68254952181278D2B21A60264B3A1C0F3212781A60254B3A1C0E32D0
:4010C00012781A60052000F0E9F83A1C0C323B1C0D3312781B789A4208D91A4B7A68033A17498A5C1A600520FFF7F2FE3B1C0B331B78181CFFF7F9FE02E0002000F0A0F8CF
:40110000BD4605B090BDC046C0F1FF0FC1F1FF0FC2F1FF0FC3F1FF0FC4F1FF0FC5F1FF0FC6F1FF0FC7F1FF0FC8F1FF0FC9F1FF0FCAF1FF0FCBF1FF0FCCF1FF0FCDF1FF0FD7
:40114000480F01002CFF0B4028FF0B401CFF0B4020FF0B4080B584B000AF78600023FB60154B154A126801210A431A60134B144A1A60144B134A1268802109020A431A60F0
:401180007B68002B13D01023FB600DE0012000F085F800F019F8031C002B02D00023FB6005E07B68013B7B607B68002BEED1FB68181CBD4604B080BD60F02E4078002E40BF
:4011C0000220000010002E4080B500AF034B1A6801231340181CBD4680BDC0460C002E4080B500AFFFF784FE044B044A1268802109060A431A60BD4680BDC04600F02E40A2
:4012000080B584B000AF78600C4B1A6801231340FB607B68002B02D0012B03D005E0FFF767FE06E0FFF782FE03E0002000F008F8C046FB68181CBD4604B080BD00F02E40B6
:4012400080B582B000AF021CFB1D1A7001BEBD4602B080BD80B582B000AF786008E00C4B1B68181CFFF734FE7B680A4A9B187B607A6880231B029A42F1D8074B1B687A6818
:401280005343181CFFF724FEBD4602B080BDC046940100200080FFFF8C01002080B582B000AF021CBB1D1A80BB1D1B88044A12785343181CFFF70CFEBD4602B080BDC046B9
:4012C0009001002080B582B000AF78600A1CBB1C1A80BB1C1A887B681A60BD4602B080BD80B582B000AF78600A1CBB1C1A80BB1C1A887B681A60BD4602B080BD80B582B03C
:4013000000AF304B1B78DBB21A022F4B1B78DBB213437B602D4B1B78DBB21A022C4B1B78DBB213433B603A682A4B9A4207D17B68072B04D1284B3B6004237B6009E03A68F0
:40134000D4231B019A4204D17B68042B01D1224B3B60224B3A681A60214B7A681A60214B1B78DBB21A02204B1B78DBB213437B607A6880239B019A4202D07B68002B01D159
:401380001A4B7B601A4B7A681A601A4B1B78DBB21A02194B1B78DBB213437B607A68174B9A4206D07A68164B9A4202D07B68052B01D1144B7B60144B7A681A60BD4602B060
:4013C00080BDC046D9F0FF0FD8F0FF0FDFF0FF0FDEF0FF0F580B0000580D00006C002E4074002E40DBF0FF0FDAF0FF0F0220000078002E40DDF0FF0FDCF0FF0F0F0F000034
:4014000005050000050F000080002E4080B582B000AF021CBB1D1A80BB1D1B88181CFFF73DFFBD4602B080BD80B582B000AF78607B68181CFFF70EFFBD4602B080BDC04627
:4014400080B500AF00F068F8BD4680BD80B500AF00F06CF8BD4680BD80B500AF00F066F8044B181C00F024F8032000F02DF8BD4680BDC0467515000080B500AF024B181C52
:4014800000F004F8BD4680BD7515000080B582B000AF786000F04AF87B68181C00F008F8032000F011F800F037F8BD4602B080BD80B582B000AF7860024B7A681A67BD4681
:4014C00002B080BD0000002090B585B000AF021CFB1D1A700623FB603C1C0B34FFF701FD031C23700B4B0B4A1268C021101C8843011CFA1D1078FA68041C9440221C0A4399
:401500001A603B1C0B331B78181CFFF7EEFCBD4605B090BD0CE400E080B500AF024B802252011A60BD4680BD00E100E080B500AF024B802252011A60BD4680BD80E100E05E
:4015400090B583B000AFFC1DFFF7CBFC031C2370074B074A126804218A431A6030BFFB1D1B78181CFFF7C1FCBD4603B090BDC04610ED00E080B500AF0FF0AAFABD4680BD05
:40158000002934D00123002210B488422CD301242407A14204D2814202D209011B01F8E7E400A14204D2814202D249005B00F8E7884201D3401A1A434C08A04202D3001B54
:4015C0005C0822438C08A04202D3001B9C082243CC08A04202D3001BDC082243002803D01B0901D00909E3E7101C10BC7047002801D00020C04307B4024802A1401802909B
:4016000003BDC046D90000000029F0D003B5FFF7B9FF0EBC4243891A1847C046002941D010B4041C4C40A44601230022002900D54942002800D5404288422CD3012424076A
:40164000A14204D2814202D209011B01F8E7E400A14204D2814202D249005B00F8E7884201D3401A1A434C08A04202D3001B5C0822438C08A04202D3001B9C082243CC08D7
:40168000A04202D3001BDC082243002803D01B0901D00909E3E7101C6446002C00D5404210BC7047002806D003DB0020C043400801E08020000607B4024802A14018029007
:4016C00003BDC046190000000029EBD003B5FFF7A7FF0EBC4243891A1847C0467047C04670B50E4B0E4D0024ED1AAD101E1CAC4204D0A300F35898470134F8E70FF03CFCEA
:40170000084B094D0024ED1AAD101E1CAC4204D0A300F35898470134F8E770BD840F0100840F0100840F01008C0F010030B50023934208D0C55C0133CC18013C2478A54208
:40174000F6D0281B00E0002030BD10B50023934203D0CC5CC4540133F9E710BD031C8218934202D019700133FAE7704710B501F059FA10BD10B500F0ADF810BD10B50749FB
:40178000044609780220002907D1204601F06BFA002802D1204608F0C9FE10BD92020020FFB51E4F81B00646397800200A9D1C46002902D0082005B0F0BD0299002900D14C
:4017C0000120002E27D0002C25D00028F3D101F029FA032D05D9A0894008A081A07B4000A0732B4622460399029800F019F80028E1D17D7001F01EFA0028DCD130467E606B
:4018000006F082F80028D6D106F098F80028D2D101213970CFE70120CDE7000098010020FFB5002481B01D460F460646002806D00398002803D030463843800701D00124FA
:401840003CE0032DFBD91F488742F8D3FFF714FEFFF7FCFD00F098FA00282DD100F0F4FB002829D11849084600F0C6FD0004000C22D13046154E3060B7800020F080358162
:40188000AD1DEFB23946039800F066F804000ED1B088F2880837801AF9B280B201F09CF8002801D0012407E0E8B200F00DF900F025F907490120087000F078FA204605B07C
:4018C000F0BD0000D8080000D5190000DC030020A001002010B503480078012801D100F01DFF10BDA001002070B5084B0446DA889E8800205518B54206D21D68AA18226021
:40190000DA885118D98070BD032070BDDC0300200148008970470000DC03002030B50C4B04461B7A01209C4210D20A4D2B68002B0CD0A000002902D0C3185B8B0B80002A81
:4019400003D029684018407E1070002030BD0000DC030020A4010020F3B582B00C4600208900009001916846FFF7BEFF164D00992960002826D1002317E09A002968062B2A
:401980008B5406D2114E9619777851184F70718806E0029E9619203EB77A51184F7031892E6892195B1C5180DBB2A342E5D3002808D168460199FFF797FF002802D1044ADB
:4019C0000099116004B0F0BDA401002000100100A80100207047000010B5002809D005494A68002A05D0011F08788000105800F0A1FF10BDA401002010B50446FFF788FF2B
:401A0000C0B2801D0749A04202D24868002808D04968A000085800F0FFFE002801D00470001D10BDA4010020F8B516460D460446FFF76EFFC0B2801DA04203D20020C04335
:401A40000090F8BDB2B2E9B2684600F00BFF0099481C03D0024AA000526811500098F8BDA4010020F1B50027FFF752FF801DC6B20B48002504680FE0607800280AD06188D2
:401A80000098814203D32078FFF7B6FF0746002F04D1241D6D1CEDB2B542EDD33846F8BDA401002010B50446FFF732FFC1B200208C4202D2A01DFFF79FFF10BD10B50028D3
:401AC00001D0FFF789FF10BD70B506460948002504680BE06178002905D062882078121D0023FFF7A1FF241D6D1CEDB2B542F1D370BD0000A4010020002070471CB5002469
:401B000069460C70142001902346054A05480CF0ADFB04480068401C00D1FF2420461CBD791B0000AC0100203EB5124A0146FF2000230124126800290DD0012914D00429B0
:401B400008D104206946009308814B8110460CF088FB80B23EBD6846009304814381694610460CF079FBF4E768460093048143816946EBE7AC01002070B545890468416815
:401B80000089030000F026F806240408081D2124002004F08FFE1BE0022908D0C8B22A4621460AF04FFE2046FFF788FF10E002202A4621460AF046FE2946204600F018F8D5
:401BC00006E000200CF046F802E020460CF0D4FB002070BD30B47446641E2578641CAB4200D21D46635D5B00E31830BC18470000014B0022DB681847B001002070B54489B2
:401C000005680089022803D0032809D0FF2070BD2246094C0023A46829460120A04708E0FFF7A4FD241DA2B200232946022005F04EFD002070BD0000B00100207047000021
:401C4000024800214160018041807047B001002070B50C46002186B016460391012802D0022859D116E003A9012005F088FD01281BD1039D324621462846FFF766FD009554
:401C8000287801900220694608814E816846FFF7B5FF41E0214D002B686809D0049004A9022005F06CFD01281DD0022006B070BD002812D0298840182146FFF746FD2888D0
:401CC0000024801980B228806988091D884206D12C801348FFF792FF03E00320E6E788421AD96C6018E004986860E278A378110219430B4A698000231060E3565360032388
:401D000013815181A1788170E178C1706178417021780170042028800020C7E7B0010020E80300203EB515460C46022803D004280CD000203EBD0091019002206946088163
:401D400007484A8100680CF08CFA07E00AF07AFD044B0022DB6829462046984701203EBDAC010020B0010020014AD16090607047B0010020034801688068081A0A2148437D
:401D800000097047F403002010B5FFF765FB542204490548FFF7D9FC03490120C870002010BD00001C1001003405002010B5FFF747FB10BD70B5134C2368002B08D0207BC7
:401DC0001149C20705D04008400020738868A08070BD88680B4AA18880B29268814203D90A4D691A091802E0814202D2411A5118A160A080A0689842EAD300F015F80CF069
:401E00004DFA70BDF4030020C0102E40FFFF000010B508461946FFF7A7FF10BD704710B5FFF780FF10BD000003480021016041608160C16070470000F403002010B502003D
:401E40000DD0FFF7F1FF074C0321207B0843207310010A21FFF7D8FB2060002010BDFF2010BD0000F403002000B504480A21806848430209FFF7D8FF104600BDF403002099
:401E80000248007B8007C00F70470000F403002070B545490868CA0410430860434AD06853051843D0600868002802DA404B01221A700222904308603B480E216C30FFF796
:401EC0000FFA394801216030FFF70AFA394C3A4D21462846FFF704FA374838496C38FFF7FFF90A20FFF7A0FA33487C380069C30B2D484030026A134254D0012000F028FA28
:401F000021462846FFF7ECF92B4820210830FFF7E7F9294814212030FFF7E2F92648FF21C1312830FFF7DCF92348FF212F313430FFF7D6F9204822494030FFF7D1F91E4848
:401F400020493030FFF7CCF91E491B48491C3830FFF7C6F918481C493C30FFF7C1F916481A495030FFF7BCF9134819497438FFF7B7F9114817492C30FFF7B2F90E4816494A
:401F80000C30FFF7ADF90C4814491030FFF7A8F909481921C9021430FFF7A2F9FFF7AEF9002070BDFF2070BD00F02E4000020B40C0010020556500007C002E4092C90000D5
:401FC000320300002F3F00003102000010520000EC160000FA12000031D000003AE3000070B50646581C80B245086D00002408E0304600F07FF81055000A1119A41C4870B2
:40200000A4B2AC42F4D3D80705D0D0182038D15CC47FD454C17770BD30B50A4C002100195B1E07E0541864782502545C2C430480891C89B29942F5DB994201D1515C018057
:4020400030BD000000102E4010B5FF2000F080F90F49FF2048700E481021801D41800121417001700A490020C91C4870FFF710FF04000AD100F0CCF807210648FFF722F921
:40208000044807211830FFF71DF9204610BD0000C0010020CC112E4030B504465B1C1804450C002308E0204600F024F8241D59005B1CA4B250529BB2AB42F4D330BD000072
:4020C00070B500210A4D5B1E0AE0541864782602545C344346193480001D891C80B289B29942F2DB994202D1515C4019018070BD00102E40014940180088704700102E4020
:40210000014A80180180704700102E4010B50B490020487000F07CF8002000F03FF9002000F02CF907210648FFF7CCF8044807211830FFF7C7F8002010BD0000C3010020C2
:40214000CC112E4010B50B46062812D006DC01280CD0032801D1FFF7D9FF10BD0A28FCD00B28FAD105480078107010BDFFF76CFF10BD1146184600F02DF910BDC6010020B4
:40218000F8B5204DAC6A0127A0071F4E002816DA307806280ED1286A384328621B480069F903084381B219481030FFF799F8042000F0CEF8134802212830FFF783F8E007D9
:4021C00011D0062000F0C4F80F49FF20C91E48707078002802D1686B38436863094801212830FFF76FF8E0050BD53078042802D1052000F0ADF80348FF2101312830FFF7E1
:4022000061F8F8BD40F02E40C301002000002E4010B503212348FFF763F80120FFF7F6F820483038406A204C80076178800F890001431C480C38FFF753F86078002808D093
:40224000401E022181401820FFF73EFAC000083800E0B82081B21548FFF742F81348032109021438FFF73CF810481149B830FFF737F8452189010F48FFF732F80D4803219F
:40228000001FFFF72DF80C490C48FFF729F80B480B496038FFF724F8084801218838FFF71FF810BD70F02E40C6010020D8102E4090890000041E2E40FF0F000058122E402D
:4022C000209000000849087806280BD148780749002803D1486B400840004863C86A01221043C86270470000C301002040F02E400148007870470000C301002000B5030042
:40230000FFF768FC080D050D0B070507090D012000BD032000BD042000BD022000BDFF2000BD0000074A9168D26889B2064B92B2994204D105498A4201D1012100E000217B
:402340000170704780002E4033D000003FE3000010B50446FFF77AF8072C01D9FF2C01D102480470FFF76CF810BD0000C30100200149487070470000C001002010B5064A29
:40238000012805D01921C9021046FEF7A9FF10BD1D21C902F8E7000090002E4010B50A4A141D012808D009491046FEF799FF08492046FEF795FF10BD04491046891CFEF7AA
:4023C0008FFF0349491DF3E788002E4031D000003AE300000078074AFF2803D04C2804D9553803E01078087070474F380870107070470000C201002010B50F4A00231360A7
:402400000E4A13600E4B18600E4801600E49012008600E490860000290600E490C4808600D4914300860FF381538506000F0BCF800F0CAF9002010BDE4010020CC01002039
:40244000F8010020FC010020E8010020D801002004050020DC010020F0010020014610B50020002910D0094B1A689C685118A14209D25868196080188A0704D08A07920F4F
:40248000891A091D196010BD002010BDCC010020F8B50024164E671E321F3D463168136806E01422624310328A58521C1BD0641C9C42F6D36A1C14D02C461422544322461B
:4024C0000C3288500C214843FFF7C8FF3168002808510AD031680020103408517068401C70602846F8BD2546E4E73846F8BD0000DC010020F3B50026F64381B000281BDB24
:402500001E490968884217D80299002914D01B4F142204463F1D54432546396810354859401C09D0FEF792FF38682F1F4159C359994203DBFEF784FF3046FEBD2146083132
:402540000091465801590C20704308180C220299FFF7FBF80948761C001D0068C159B14200D100260549009A091D865008684159491C4151FEF764FF0020FEBDD8010020A4
:40258000002803DB07490968884202D90020C043704704491422091D096850431030085870470000D8010020F0B500200D4A451E0346171F50600FE014260146714314688A
:4025C0000E1DA3510C461668083433511668083435511468401C635039688842ECD30020F0BD0000DC010020F3B50026F64381B0002841DB2349096888423DD80299002971
:402600003AD0204F142204463F1D54432546396810354859401C2FD0FEF718FF3868415900292BD0211D009146580C21005971430F46C1190C220298FFF787F8114800216A
:40264000001D0068761C00590C34C0190160416081600C48001D00680159B14200D100260849009A091D865008684159491E4151FEF7E6FE0020FEBD3046FEBDFEF7E0FE2F
:40268000FAE70000D8010020FEB504460D4600201E49089E0860471E009001900290002C11D0486885420ED2002A0CD0002E0AD0642E08D808460C3001681C2068430C1861
:4026C000207A002801D03846FEBD0120226020721846FFF7DDFE6060401C13D06681A6810A4827610C3067610179A94200D205710021684601810A462846029B00F040F83E
:402700002846FEBD00202072DDE70000E401002038B50124009400F039F838BDFEB50027164EFF433D4600240EE01C20316860430818017A002906D04068FFF721FF00282C
:4027400001D0254603E0641C3079A042EDDA681C12D01C2130684D434419FEF777FE69466068FFF741FF0546FEF76AFE002DD9D1216868468847D5E7FEBD0000F00100201C
:4027800038B50024009400F001F838BD1FB500220C49541E0A60002811DB496888420ED808491C220C31096850430818406801A9FFF7A0FE401C02D0002004B010BD2046EF
:4027C000FBE70000E4010020F0B50021114A4D1E174611710C3F0B46BD6016E008461C2460431668041D355114680646235014680836A3551468361DA353044616680A34CA
:40280000335318301468491C255078688142E5D30020F0BDF001002038B500210091002811DB0F49097888420DDA0D4D04010C3529680859002807D0201D0818694600F071
:402840006DF9002801D0002038BDFEF7FFFD28680F34015D491E0155FEF7F2FD009838BD00020020F7B582B0002502986E1E06602E48D21C024017462D4A2C4610460C385D
:402880000178106805E02301C358002B0FD0641CE4B28C42F7D3711C28D03401211D40180191039900F028F900281FD101E02646F1E71F48016820460C300F521C480399AC
:4028C000026820460E30115419480399026820460F3011540398784300F0A0F8144900280968085102D00024009011E001251AE00F48016801980818009900F02AF90028E3
:4029000001D0012502E00098C0190090641CE4B203988442ECD3002D05D10298066004480179491C0171284605B0F0BDFCFF00000C020020F8B50D4600216A468C461180BA
:40294000002839DB23490978884235DA214B04010C3319680A59002A2ED020460C300B5A801C0E5C184670438018954224D3854222D2002006E007465F43BF18AF4206D0C7
:40298000401CC0B2B042F6D36046002814D0114E271DC8190C366A46294600F004F900280AD168460088012808D030682946C01900F0CFF8002803D00120F8BD0020F8BD93
:4029C000FEF744FD30680F34015D491C0155FEF737FDF3E700020020F8B50F46002400F033F8002817D10C4900220B460C334A600EE021011D680E466A501D680C36AA531F
:402A0000B61C1D680F31AA551D68641C6A54E4B2BC42EED31A71F8BD00020020014610B5002000290CD0C91C064B8A08596892005C888A18A24202D898685A60401810BD17
:402A4000002010BD00020020F8B5044600200D4E009031700D01748029466846FEF744FF00280DD131460C3100980860601B001F81B26846FEF738FF0099B160002800D04A
:402A8000FF20F8BD00020020F8B5002827DB19490978884223DA174C05010C342168485900281CD028460C30085A009028460E300E5C401C0E5420682F1DC01900F064F84F
:402AC00000280CD12068002445590EE0094829460C300068C01900F03CF8002801D00120F8BD00982D18641CE4B2B442EED30020F8BD00000002002030B50D4604000BD0B1
:402B0000A800FFF78BFF6060002805D000202570C0436080002030BD012030BD70B50D46040005D0002D03D00220205E002801DA012070BDFEF78AFC0221615E606889000D
:402B4000405828606088401E6080FEF779FC002070BD70B50D46040007D0002D05D002212078615E401E814201DB012070BDFEF76DFC6088401C00B26080616880000D5064
:402B8000FEF75EFC002070BD10B5040009D0227800216068FEF7E2FD0020C0436080002010BD012010BDF0B500231D46002802D00224045F0AE00120F0BD46689F00F659A0
:402BC0008E4201D1012503E05B1CDBB29C42F4DA15700020F0BD00000148007870470000140200207CB505460024FEF7BFFDA8796946087000A8062229460130FEF7A5FDDA
:402C00000021684604F0B4F80C2804D0072804D01F2804D004E0022402E0042400E0272420467CBD10B500F0B7F8FFF761FBFFF765FB10BD10B503240CF018F8002810D147
:402C40000BF0BCFF00280CD104F0E8FD002808D100F064FA002804D104F0E4FA002800D10024204610BD70B50025044600280ED0A07901280BD8FEF779FDA0790028204681
:402C800002D002F0D3FD03E002F088FD00E00125284670BD38B504460120002C20D0617801291DD800290BD0FF25E535FEF75EFD2846FFF71FFAC0B22070072803D00EE018
:402CC000FF25CD35F2E70020694608706846FFF729FB69460878012801D108202070002038BD70B504460120002C1FD06178012902D92278092A19D8002905D0FF25E5354C
:402D00002078092803D004E0FF25CD35F8E707202070FEF72BFD2078082808D00020FFF73DFB21782846FFF7EBF9002070BD0120FFF734FB0721F5E770B50D46040001D087
:402D4000002000E00548002802D0012101F0A6FF2946204602F080FA70BD0000A805002038B5054600200446009022466946284600F06CFE0098002801D00BF059FFA87804
:402D8000214602F0ADF8A878214602F09CF8641CE4B2052CE9D338BD38B5FFF7A9FA042819D0052817D006281AD0032842D007280AD100206946087002460120FFF7C2F9A1
:402DC000FFF796FA0128FBD138BDFEF7B9FBFFF78FFA0128F8D0FFF78BFA0128F5D138BD02F0E6F805E0FEF7ABFBFFF781FA012803D0FFF77DFA0128F5D1A1242401204682
:402E0000FFF778F901220E4983079B0F0A70022BE5D149880029E2D0104301462046FFF76FF92046FFF766F9410849002046FFF767F938BD02F0C0F80120FFF789FA38BDDF
:402E40001A020020F8B50646002402F0F3FD0546304602F007FE00210346012632468A40174610462F401840002F03D0002801D1224394B2491CC9B20529EFD32046F8BD80
:402E80001CB50020694648706846FFF703FF01AA69460A20FFF756F96946042008561CBD10B50C4601F076F9002809D00179002906D0C1788078224602F07CFA002010BD62
:402EC000022010BD0148007870470000740500204030C07E002800D00120704700B500F001F800BD88214843064940186030417F491CC9B24177052901D300214177C8B2E1
:402F0000704700008805002013B501F043F904000BD001F096FC002807D0214601AA0A310620FFF70FF900201CBD02201CBD000010B50C4601F02EF900280AD001F081FCD3
:402F4000002806D0224604490A20FFF7FBF8002010BD022010BD00005D050020F3B581B0074601460026029802F05CFD0446002F01D0002500E0154D002D21D0284601F087
:402F80003FF9032C04D13946029802F075FD06463846029901F097FF032C06D0002C10D00121384601F01AFA03E03146384602F017FF284601F058FE0221284601F06EFE33
:402FC000FEBD3846029901F07EFFFEBDA805002070B50446002503F005FB002801D00C2070BD2078611C02F0DFFAFF2802D01F25284670BD02F02CFBFF2804D02178621C4B
:4030000001F0D6FEF4E70725F2E710B503F0EAFA002801D00C2010BD02F09EFA002010BD70B50D46044610210BF042FD1021601806460BF03DFD334610221946204603F02C
:40304000FDFA102130460BF033FD02202870204604F040F870BD70B504464078217802028006850FE0781143A67809050002090D0643084601F08EF8002812D0022D10D019
:40308000032D0ED0002E08D00179092909D0002907D0214600F0A1F870BD0089002103F04EFF20460BF0C4FD70BD0020704770B50446002503F096FA002801D00C2070BDE1
:4030C0002078611C02F070FAFF2802D002F0B2F900E01F25284670BD10B504F0A3F800F0F6F8002010BD10B5044600786178E2780843A17811430843217908436179084324
:4031000005D003F061FA002803D00C2010BD122010BD204602F08AFB002010BD10B5044803F0CAFA02F090F900F004F8002010BD44050020F8B5114D00266E706E736E715B
:403140006E76AE76EE766E75AE70EE70AE712F46EE730120B03778723F2078719B20B87100F00AFA0024204601F032FB641C2406240EF8D03E72FE71AE73F8BD880500208F
:4031800070B505460E46084602F054FC0446304602F068FC0121A9400A46224001400A4301D0012070BD002070BD10B50446084602F058FC0121A140014201D0012010BD46
:4031C000002010BD10B5FFF793F8032804D101F0F3FE0120FFF7BCF810BD70B5044600790D4609281CD000281AD020464030817E491C8176204601F037FDA078FFF76EFE82
:40320000064602462946204600F00CF8002806D1A0783146FFF790FD28460BF009FD70BD0846FAE7F7B5054648780C468006870FC8788978000282B001436846818028465A
:4032400001F00AFB060007D021462846049A00F091FB304605B0F0BD384600F039FC0746034601AA2946204600F0CAFA68468088231DC0B20090A878FF22049901F0A6FFDB
:40328000684680883B46C2B2A878049902F04AFBDFE770B5002500242846FFF7D3FD060010D03046E040C007C00F07D02146284601F0FDFD21462846FFF750FE641CE4B22F
:4032C000052CEED36D1C2D062D0EE4D070BD10B502F0BAF8FFF72EFF0BF012FD002010BDF8B5002400F081F80123012800D10124104F00203E4620360425082203E000284D
:4033000001D0002100E031460979002907D001290BD002290BD0114681402143CCB2401C0006000EEBD07C70F8BD1C43F7E72C43F5E700008805002010B5FFF7D1FF10BD64
:4033400010B50B4681791943817103D08078114602F0ACFA10BD10B582798A43827102D1807802F0BBFA10BD70B5FF25D53502242846FEF7BFFE0C4A9178002901D002298C
:4033800006D1137852789A18282A01D9032402E0032900D101244105490DE00201432846FEF7AEFE70BD00001602002010B500F022F8002807D0012805D0032801D00428AE
:4033C00001D0002010BD012010BD014610B50020C90701D000F009F810BD014610B50020C90701D000F001F810BD10B52020FEF781FE000A10BD10B51820FEF77BFE410512
:4034000001D5042010BD4007800F10BD38B5044640060CD5684601F0D5FD0220FFF78CFF072002F02DF96846007801F03FF9200613D5FFF7E0FF01280FD1684601F0C2FDD8
:403440006846007800F09AFA072002F019F9012001F072FC0220FFF76FFF38BD10B5034A0178117002F01BF9002010BD1602002010B50446FFF7B9FF002801D00C2010BD96
:40348000A27B01211848002A827801D00A4301E05208520082706279012A0FD0C17849084900C170207901280CD06188208802F005FF2080207904280BD00DE0C2780A43EA
:4034C000C270EFE7E01D02F099F90848808C208002E0E01D02F092F9054920798870204602F0ECF8002010BD88050020340500201602002038B50478FFF777FF844201D138
:403500000C2038BD002C18D0072069460870FFF74DFF012807D10121684600F08DF8012801D0092038BD6846007802F0A9F8FFF71BFF02F0F0F8012010E0FFF737FF01285F
:4035400006D1684601F03EFD6846007800F04AFA072002F095F802F0D5F80220FFF7ECFE002038BD10B5034A0178517002F076F9002010BD1602002038B568460BF0EEFA74
:40358000002801D01F2038BD01210098C90201804180002505714571857107214173857302F08CF8009C202200212046FEF7D6F825702A460021601CFEF7D0F8204602F0A7
:4035C0006EF8204602F04AF900980BF031FB042200210248FEF7C2F8002038BD160200200346084800B5834209D8184600F0D2FD002804D00089984201D1012000BD00203E
:4036000000BD0000FF0E0000074A9179491C8906890E917138220A4092014907090E1143084302490840704788050020FF0E0000C006C00E70470000F8B507460E460024DA
:403640000D4803E0002C01D0002500E005462979002905D0641C2406240EF3D00020F8BD204601F0B5F82E712046FFF7CDFF28813C700120F8BD0000A805002010B503F036
:4036800011F80222002100F003F801F085FE10BD10B5094B40074907000F090F185A595A40185043C0086421FDF7AEFF002800D1012080B210BD000070100100F7B53D2018
:4036C000405C88B016460C46002829D030786946087200252046FFF7FBFB012800D00125204603A938300191009023460327A17E34332A46206A02F0F9FF02A8089900904C
:403700000B46019120463A4603A9243002F078FF02466846007A3070204601F045F810460BB0F0BDFFB587B00C4605461078694608723D20005D1746002826D000262046FB
:40374000FFF7C6FB012800D00126204603A93830019100902346A17E34333246206A02F0C5FF02A80090291D019120462B1D03A924300A9A02F044FF02006846007A3880B4
:4037800002D1204601F010F810460BB0F0BDF7B53C20405C88B015460C4600280CD0287869460872002806D000262046FFF790FB012803D003E01F200BB0F0BD01262046A5
:4037C00003A938300191009023460327E17E34333246E06902F08AFF02A8089900900B46019120463A4603A9243002F03BFF02466846007A2870204600F0E0FF1046DBE7D9
:40380000FFB505463C20405C87B016460C46002810D0084601F020F801280BD0308869460883002809D000272046FFF751FB012805D005E000200BB0F0BD0220FBE70127F0
:40384000204602A93830019100902346E17E34333A46E06902F04AFF06A80090291D019120462B1D02A924300A9A02F0FBFE02466846008B30806846008BA870000AE87044
:40388000204600F09BFF1046D5E770B50D460446FFF71EFB01280AD0E87AA97A00020143A07801F049FC012808D0002070BD00222421204602F04CFC242070BD28214C209E
:4038C0000155204600F09AFB282070BD002801D0002000E003484030C07F012800D0002070470000A80500200146002049070ED50021084B03E0002901D0002200E01A4635
:403900001279022A04D0491C0906090EF3D0704701207047A80500200146002049070ED50021084B03E0002901D0002200E01A461279022A04D0491C0906090EF3D0704775
:4039400001207047A805002010B5044680346068002803D00BF080F90020606010BD4030417070474030817070474030017070470171704792001018C166704770B53C252C
:4039800001F0F4F8040004D020460021433001F08DFB2946204600F0C0FB002C02D0A07801F076F870BD000010B5002801D0002000E00348002802D0008903F007FB10BD6F
:4039C000A805002010B5002801D0002000E00448002804D00179072901D100F041F810BDA805002010B501F0C1F8002802D0807801F04EF810BD00207047000070B5054609
:403A0000008A00281ED010491122897A1140C90618D5294640314A8A098A521C4A4392B2D10800D10121540801E0621A94B2A042FBD9FFF7D1F8012804D1298AA87822464B
:403A400001F058FC70BD00003405002000230B60052A04D292001018C26E0A60C366704738B5044600200090A079002814D14020015D052901D00E290ED168460BF07EF8B5
:403A8000002809D12046009902F04AFB03481021C28A2046FFF754FC38BD00003405002010B50B4604460146184602F019F8002802D020460BF0C6F810BD13B5044601AA61
:403AC00011460620FEF73EFB6846818861811CBD002800D10220704770470000F8B504462346401D543300909A1EA078911E01F078FA25464035A88A298A8000FDF784FDB0
:403B0000401E81B2688A884203D96982A07801F04AFF20460021433001F0C8FA8020FEF7E9FAE88102F0BEFDE989891C8AB26179FFF7AEFD01F030FC02F0B4FD2A8A6179C8
:403B4000FFF7A6FD074601F019FC688A00280BD0FF26F1363046FEF7CDFA0321090201433046FEF7CDFA02E0002001F00AFFFF206130FEF7BFFA6E8A002E0BD070431049DA
:403B8000FDF7A2FD0004000C01D0401C80B20D49488002E00B4800214180288A704381B2A07801F069FE2837B9B2204602F08AFBE98AA07801F0B8FDA07801F0A7F9F8BD90
:403BC000710200001A0200207FB504468034616805460E46183108226846FDF7B6FD31462031082202A8FDF7B0FD102168460AF05FFF6068102108300AF05AFF60682B4683
:403C0000083024331022694602F018FD7FBD10B504460821FFF79FFB10212046FFF79BFB207905281FD006281DD008281AD12189002003F043F9072020712046FFF748F9AD
:403C4000014620464030012913D00E21017000210176204600F028FF2046FFF775FE2046FFF7CCFE10BD20890122002103F00AF9E1E70521EAE70000FFB581B01F4604466D
:403C80000821FFF768FB10212046FFF764FB2079082803D0092804D0042203E00422012501E009220025204600F0C2FD264600204036307022712046FFF746FE0398002DBD
:403CC00002D0012808D00BE001280AD120890022029903F0D7F804E02189029803F0EEF8012700203076012F04D0204600F0DCFE05B0F0BD02983073204602F055FA054626
:403D000005480121C28A2046FFF71AFB002DEFD109202071ECE700003405002070B50C460546FFF7D5F8012809D108212846FFF712FB0023012221462846FFF79DFF70BD88
:403D400010B5044600F074FD2046FFF7FDFD00214034217010BD70B505461A24FFF7B8F8012809D108212846FFF7F5FA0023012221462846FFF780FF70BD0000F8B5044603
:403D8000002000900E4668460AF0F8FE002801D00D20F8BD8420005908212030009D00F0F4F920460421383000F0EFF9002E02D1204600F07BFD2946204602F041F90E48A5
:403DC0000821C28A2046FFF7BBFA204600F0D3FE25464035002808D0204600F023F8002801D0092028700020F8BD08202870204600F03AFFF7E7000034050020014610B5A4
:403E000040310A460978082906D0092907D00A2901D100F091F810BD0B20107010BD00F001F810BD70B50446007925464035052805D0062803D008280FD00C2070BD03225F
:403E40000621204602F084F90D480821C28A2046FFF776FA1120287010E006202873204602F0A2F90646AA8A0A20424301212046FFF766FA002E01D109202071002070BD2F
:403E80003405002038B504460020009068460AF075FE002801D00D2038BD2046009D00F08BF908202071204600F000FD2946204602F0F8F800213D2001550F204021085591
:403EC000204600F0D1FE002038BD00B5024600F0AFFC10214032117000BD10B50446FEF7F7FF012809D04020005D112805D100231A4606212046FFF7BFFE10BD10B5FFF7FC
:403F000086FE10BD38B504460021684600910AF035FE00280CD12046009902F03AF905480821C28A2046FFF70BFA0D204034207038BD00003405002038B50446002168469B
:403F400000910AF01BFE002801D00D2038BD2046009902F013F905480821C28A2046FFF7EFF90C2040342070002038BD3405002000787047F8B50025002801D0002400E0E3
:403F80001A4C002C28D0204600F05BFC002823D0207903281CD005281CD026464036B18AA07801F077FCB078012815D10021204601F0B3FD274680373868002802D00AF036
:403FC0004BFE3D600020B0702079072805D007E0042000E006202071F8BD2046FFF70EFD0221204600F05AFEF8BD0000A805002010B54C22115400F046F810BD10B504464B
:40400000FF21FFF7A8F909202071A07801F072FC10BD000038B5FF216A461180002801D0002400E0064C002C08D011460620FEF789F8684601882046FFF73FFD38BD000073
:40404000A805002010B504468079002809D022214C200155FF212046FFF77DF9204600F012F810BD10B5037902464032002B03D01173092B02D003E0002100E02221117318
:4040800000F001F810BDFEB504460089002701902781207926464036002817D0012815D002280AD112E002AA6946204601F006FD002807D100980AF0C5FD204601F026FD52
:4040C0000028F0D02046FEF74BFEB776254680352868002802D00AF0BFFD2F606868002802D00AF0B9FD6F60317B002902D0019800F044F8A078002100F01CFF2046FFF7C3
:40410000BDFAA07801F002F8A07800F0C1FC0B20FFF712F900F000FCFEBD70B50E46054602F0BCFA044606702846FEF7D1FE014601204140204661700C3000F0A0FF002DB7
:4041400010D02889608028464030C1782171002E10D169796171018AE180418A2181808A608107E01820FDF7C5FFC005C00F207100206080204602F04AFE70BD0A4610B540
:404180000146002002F03AFF10BD10B50AF06CFA10BD000000B50146FFF74AFA002801D0002000E00348002802D002898A4200D0002000BDA805002038B5044680346068B6
:4041C000002806D168460AF0E9FC002801D100986060606838BD000010B5014600F03CFB0128887802D0FEF77DFE10BD88214843024940186030007F10BD00008805002059
:4042000070B5054604464035A87F012811D1A1788820084A484380186030067F3046FEF7AFFF002805D10220A877A078314601F021F870BD8805002010B50E4CE079002867
:4042400016D0FFF726F80C48827FC17F808B00F06BFB01280CD10020E07100F0BCFE0446AC20FDF747FF010B02D0204600F00EFA10BD00003806002088050020704770475B
:40428000490510B5490F0B00FDF7A4FC060704080C0C0F073E21FFF7ABFE10BD0821FFF7E1FE10BDFFF7EFFE10BDFFF7CBFE10BDF8B507460025002D01D0002600E0204E4A
:4042C00000F064FE3046403044890021418100F067FE304600F0B5FA01282BD1A00702D52846FFF747FEE00602D52846FFF792FEA00601D5FEF7CDFF600601D500F0C8FA44
:40430000200602D5284600F01DF8600702D5284600F0FAF9380402D52846FFF753FB780402D52846FFF740FBE00703D021463046FFF7A6FF6D1C2D062D0EBCD0F8BD00005D
:40434000A8050020F8B5002801D0002400E0204C002C39D025464035A878012834D1E98AA07801F0E1F92046FEF7B2FD01282BD002F098F92A8A6179FFF78AF9064600F0AD
:40438000FDFF2836B1B2204601F09CFFE98AA07801F0CAF9FF206130FDF7ACFE6E8A0D4F0146002E11D0304648430B49FDF78CF90004000C01D0401C80B27880288A70437D
:4043C00081B2A07801F058FAF8BD0020F5E70000A80500201A0200207102000070B50D46124A010001D0002401E014462034002C1BD0204600F030FA01280AD188204843DB
:4044000080186030007FFEF7BBFE002801D101F055FE20464030817E491B8176204600F023FC2089294602F08AFD70BD8805002070B503460088FFF7ADFE040013D000F06B
:4044400000FA00280FD02079092819D02546997840352973204601F0A7FE0646A878012803D0AA8A02E0022070BDEA880A20424301212046FEF764FF002E01D10920207177
:40448000002070BD0EB5002217216B460292198100905A810120029B00990AF04FFC0EBDF8B5184E0024F079002820D10025AC20FDF720FE000B21E0204600F007FEFDF7CA
:4044C00019FE07462A46214600F02EFA01280FD00D48012187838577C477F171002D01D0002000E02030002801D000F0BDFBF8BDAC20FDF7FFFD000B641CE4B20028DBD1F2
:40450000F8BD0000380600208805002010B50088FFF740FE002809D0014640310C460978082905D00B2903D00C2010BD022010BDFFF778FC002801D009202070002010BDB0
:4045400070B503460088FFF725FE040008D0254640352878082805D00B2803D00C2070BD022070BD8420005910220830991CFDF7ECF82046FFF728FB2878082804D02046A0
:40458000FFF7DAFC002801D00A202870204600F06BFB002070BD000010B50C46002121700088FFF7F7FD03000BD000F04AF9002807D009481121807A0840C00603D411208D
:4045C00010BD022010BD022020701A8A1889002102F030FD002010BD34050020F8B50F46002100910088FFF7D5FD040012D000F028F900280ED0E079410641D4617E0226C5
:404600004A07002A08DB8907402500291ADA2843E07135E00220F8BD02F040F80021017021894180A1898180217E4170E189C1803E7005460178134802F062FA284602F09A
:404640009DFC1DE0204600F00DF9012806D068460AF094FA002803D00720F8BD2A20F8BDE07900992843E071204601F0C7FD607E0421304360760448C28A2046FEF760FED7
:404680000020F8BD1D040000340500203EB500220F236C460292238100910190628169460EC900200AF04AFB3EBD000070B5054600F05CFA040021D00320207125460026A5
:4046C0004035EE76E6702046FFF708FA01F01AF80920FEF731FEA07800F006FD0121204600F0DCFA2E706E70AE7000212046FFF714FD0449887B401C887370BD284601F029
:40470000F9F870BD8805002010B5002801D0002400E00A4C002C0FD020464030417802290AD1002141702046FEF7D2FB002803D10221204600F0B2FA10BD0000A805002041
:4047400070B503460D460088FFF724FD04000BD000F077F8002807D012481121807A0840C00603D4112070BD022070BD20464030418A008A491C41430804C10C58888842ED
:4047800001D2122070BD20822079072802D12046FFF734F9022028702089002102F072FC002070BD34050020016A491C016204D1817E491C4906490E81767047C169491C28
:4047C000C16104D1C17E491C4906490EC176704770B500250646002801D0002400E0114C002C1CD0882200212046FCF7B7FFA67000202646207140363070204600F018F8F9
:40480000204601F07FF9084820820848B577807A1121084000D001202075012070BD002070BD0000A8050020B80B000034050020002101628176C161C17620300177417769
:4048400070470079002805D0012803D0022801D001207047002070474030807F002800D00120704740300078002807D0012805D0052803D00E2801D001207047002070478B
:4048800010B5807801F0EEF8002800D0012010BD10B500F0A0FB0446AC20FDF72BFC010B02D02046FFF7F2FE10BD000070B5054604464035A87F002823D1FF206075A07888
:4048C0008821144A484380186030417F8823491CC9B24177A078584380186030052901D300214177A0788821484380186030467F0677A1783046FEF743FC002802D00120B1
:40490000A87770BD0220A877A078314600F0B2FC70BD0000880500200020401C0006000EFBD0002070470000F0B515468207920F85B0C004C00E02926A469080002D01D06E
:40494000002400E0514C002C29D0084600F0BEFB03906846808800280BD00298012845D0022843D003280CD03D20005D012872D086E00398FDF7BEFB01462046FFF79DF807
:404980007EE00020029002A80AF0D8F8002807D03D20005D012876D12046FFF705FF72E06846029E8388324600210398FDF718FB0398FDF79FFB01462046FFF77EF8284654
:4049C00000F0B0FA01AA21463046FEF777FE002806D030460AF022F93D204C21085528E0F5773146204601F0DBF94CE000200090278968460AF092F8002802D0002005B0D8
:404A0000F0BD6846009E8388321D00210398FDF7E7FA0398FDF76EFB01462046FFF74DF8284600F07FFA25464035287E00280CD103E02046FFF7E2FA25E001AA21463046A8
:404A4000029BFEF76FFE002806D030460AF0DCF83D202873EDE710E00298FFF73DF8390A000101433770717068468088B070000AF0703046FFF706FD05E02046FFF794FEE2
:404A8000284600F04FFA0120B9E70000A805002010B5044A917B002901D0491E9173FFF797FE10BD88050020F8B5074606464037B87F00283DD0B0788821009048431F49BB
:404AC00045186035287F0099FEF76FFB012831D0287F401CC4B2052C00D300240020B877FF276F772F77A87702460146009800F041FD717DFF2903D0304600F0C4FF7775E7
:404B000001F0DCFA00252F462246694630460097FEF79CFF0099002902D03046FEF75DFB641CE4B2052C00D300246D1CEDB2052DEAD3F8BD0320B877F8BD0000880500204B
:404B400010B502460021084B03E0002901D0002000E018460479944204D0491C0906090EF3D0002010BD0000A805002000B50120FFF7E6FF00BD10B5044601F08FFD2189A6
:404B8000018080346168416061682831816002F0AFF910BDF7B50646087982B00C46092807D0A078F0770846FFF756FE012806D010E030460AF046F8022005B0F0BDA17896
:404BC0008820284A484380186030007FFEF7D8FA012810D0A078FEF779FE01280BD037780121304601F017FA25462035062F36D00B2F0FD107E06846027C21463046FEF7CE
:404C00004FFF0D20D9E72046FEF762F9012801D1002028772046FFF7DFFA054604AA21463046FEF7B4FD01205F2108556946087C0090A07833463A46294600F0C7FA694677
:404C40000A7CA0780323294600F06CFEA0782946FEF772F8304609F0F5FF0020ADE70120D7E700008805002010B502464032937F0021002B03D1927E002A00D00121064AF1
:404C8000D279002A00D000210279092A00D10121807800F063FE10BD3806002070B50C460646FEF715F9002814D1012C0ED935464035A87800280DD1687802280AD03079EF
:404CC000092807D03046FFF7DBFD0446204600F080FD70BD0124F9E770B50D4601280BD0082808D1A8241146B020FDF709FA29462046FDF705FA70BD2020FAE710B5014688
:404D00000820FDF7FDF910BD10B50446FF20F130012C01D1FF20D530002200F06AFE1020FDF7E8F90349A043088001461020FDF7E7F910BD1E02002010B504461020FDF761
:404D4000D9F90449A043088001461020FDF7D8F910BD00001E02002010B50446012802D0082C07D102E0FF20D53001E0FF20F13000F034FE1020FDF7BDF9044920430880EF
:404D800001461020FDF7BCF910BD00001E02002010B504461020FDF7ADF904492043088001461020FDF7ACF910BD00001E020020F8B507460120B84085B214460E4601227D
:404DC00029467C2000F015FE32462946782000F010FE6078217800020143E078A5780002054360792679000206430C2047430D2080013C182046FDF783F9241D294620464B
:404E0000FDF77EF9201D3146FDF77AF9F8BD8B00034310B5D10191201943C000FDF770F910BD000070B505460C46407829780002014341200001FDF763F9E878A978000242
:404E400001430A48FDF75CF960782178000201438320C000FDF754F9E078A1780002014302480830FDF74CF970BD00001404000070B50D46044681B201208002FDF740F97C
:404E8000210C0448FDF73CF981202946C000FDF737F970BD0404000070B5054600242846FDF728F9641CA4B2102CF8D370BD10B50C460146B020FDF723F9FF2021462D30E5
:404EC000FDF71EF910BD10B50C460146B020FDF717F9204600F0B8FD0021FDF711F910BD70B50C46054600F005F821462846FFF7DEFF70BD10B50C460146B020FDF700F912
:404F0000FF2021462930FDF7FBF810BD10B50146B020FDF7F5F8FF20002220211D3000F068FD10BD010210B54D310020FDF7E8F810BD000010B504020029014608D0B02046
:404F4000FDF7DEF8214675310020FDF7D9F810BDB020FDF7D5F8512000214001FDF7D0F800210348FDF7CCF821467631ECE70000240A000010B554210020FDF7C1F810BD81
:404F800010B553210020FDF7BBF810BD10B5034908884880FFF7D0FE10BD00001E02002010B502484088FFF7F3FE10BD1E02002010B5FDF787F910BD10B552210020FDF7CD
:404FC0009FF810BD10B504461820FDF793F88004400F207010BD10B5B020FDF78BF8C0B210BDF8B50E4601461C461546B020FDF787F8FF20E930FDF77DF80746FF20013086
:40500000FDF778F83080FF200930FDF773F82880FF200530FDF76EF8208079070698490F0170F8BD10B5C820FDF764F810BD10B50C46002812D05820FDF75CF82070000ACE
:4050400060705C20FDF756F8A070000AE0706020FDF750F82071000A607110BDFF20C130FDF748F82070000A6070FF20C530FDF741F8A070000AE070FF20C930E8E770B5DE
:4050800004466820FDF736F806466C20FDF732F805467020FDF72EF82670310A6170A570290AE1702071000A607170BD10B50446012905D01820FDF71DF8C00B207010BDC6
:4050C0004820FDF717F88007C00FF7E70120C002704710B50C460146B020FDF711F80321A0014902401810BD8821074B414310B5C918FF2260314A770A7700228A77114684
:4051000000F038FA10BD00008805002088225043074A10B58018FF21603041770177002181770448418EFF201D3000F057FC10BD880500203405002010B50C460146B02024
:40514000FCF7DEFFFF202530FCF7D4FF0222214600F002F810BD000010B50023884201D8081A03E00024E443201A4018044980B2884201D8824200D90123184610BD000068
:40518000FF7F0000F8B503465078167800020643D07895780002054350791779000288240743002900D098241946B020FCF7A8FF31462046FCF7A4FF201D2946FCF7A0FFBB
:4051C000204608303946FCF79BFFF8BDFFB581B014460D4606460A9FFFF77BFF3B460021049AFCF76DFF02484019845505B0F0BD2202002070B506460D4611242520A401B5
:4052000008214001FCF77CFF2B46324600212046FCF756FF70BD70B5212405466401FFF7AFFE10232A4600212046FCF749FF70BD10B5044640782178000201438F20C0004D
:40524000FCF75EFFE078A178000201430148FCF757FF10BD7C04000010B50C460146B020FCF74EFF802021460143FF202930FCF747FF10BD70B50D460146B020FCF740FF50
:40528000FF241D342046FCF735FF01090901FF202943013001432046FCF732FF70BDF8B500242646012807D0032802D0052808D105E002240A2604E004240C2601E0042460
:4052C0000D26492701463F013846FCF719FF25204001FCF70FFFC5B228462042F7D0252031464001FCF70CFF00213846FCF708FF2846F8BD70B50D46044601461646B0207A
:40530000FCF7FEFE512029464001FCF7F9FE31460648FCF7F5FE032189030820FFF71CFD210275310020FCF7EBFE70BD240A000070B50D4604460146B020FCF7E1FEFF20F7
:4053400029461930FCF7DCFE21024B310020FCF7D7FE70BD70B5491E8CB205460146B020FCF7CEFEFF2021461930FCF7C9FE29024C310020FCF7C4FE70BD0000054910B5C3
:40538000884200D908460146FF206130FCF7B8FE10BD0000FF0F0000054910B5884200D908460146FF206530FCF7AAFE10BD0000FF0F000070B588251446002900D098252A
:4053C0000146B020FCF79CFE2846FCF793FE2070000A6070281DFCF78DFEA070000AE07028460830FCF786FE2071000A607170BD10B51446024611200B4680010021FCF74C
:405400004BFE012C01D1FFF7B5FD10BD10B504460920C001FCF76EFE2070000A60700448FCF768FEA070000AE070FFF7A3FD10BD840400000121814010B589B200227C2052
:4054400000F0D7FA10BD000070B5FF210120FFF75BFCFF210820FFF757FC3020FFF76CFC80210020FCF74CFE002211460320FCF769FE374DFF20A98DD530FCF741FE002484
:40548000FF26F1362146B020FCF73AFE298F3046FCF736FE2046FFF739FE641C2406240EF0D0FF20A98FF930FCF72AFE28481030044600F073F9204600F0B8F900F04CF88E
:4054C000234CB82040346188FCF71AFEA188BC20FCF716FEE188C420FCF712FEFF20698EE130FCF70DFEA12000210001FCF708FE3920FFF74DFCFFF743FD93200721C00037
:40550000FCF7FEFDFFF736FDE020FFF7C5FCE820FFF7C2FCF020FFF7BFFC0020FEF7AEF8618A0C48FCF7ECFD0A482821001DFCF7E7FDFF210131AC20FCF7E2FD8320002107
:405540008000FCF7DDFD5B210020FCF7D9FD70BD34050020140A000010B500217C20FCF7CFFD00217820FCF7CBFD74210020FCF7C7FD10BD70B50D4601461446B020FCF70B
:40558000BFFDFF261D363046FCF7B4FD01090901FF20294301308143002C01D1102041403046FCF7ADFD70BDF3B589B0FF2001900D208001009048780D7800020543C8787C
:4055C0008E780002064348790979000201437C200791FCF78FFD06907820FCF78BFD059074210020FCF78CFD18480024049026E00120A04087B20098FCF77CFD0390009828
:40560000FCF778FD02900098FCF774FD039A29465140029A72401143079A424011430BD10698074208D00598E040C1070998C90F814201D1019405E0641C0498E4B20078EC
:40564000A042D5D801980BB0F0BD00007405002070B5FF257C20FCF74DFD0849002401230A7805E01946A140014205D0641CE4B2A242F7D8284670BD2546FBE7740500203D
:4056800010B504461820FCF735FD0721C90288436107890C01431820FCF732FD10BD10B50446E020FFF7F8FB20782246401CC3B20021E020FCF7B0FC10BD000010B50446F3
:4056C00041790079042817D040000843A17B032901D8C9000843617B4A010243A079010207201143C00201431820FCF709FD21881C20FCF705FD10BD08460149E5E700005F
:405700000204000010B50120FFF716FB41210020FCF7F6FC10BD10B50120FFF739FB40210020FCF7EDFC10BD10B50C460146B020FCF7E6FCFF2021460D30FCF7E1FC10BDA5
:4057400070B50C4601461E461546B020FCF7D8FCE92021468000FCF7D3FC75202946C000FCF7CEFCEB2031468000FCF7C9FC6C433B20A1B20001FCF7C3FC70BD70B50C4674
:4057800001461546B020FCF7BBFC21468420FCF7B7FC29468020FCF7B3FC70BD10B504464078217800020143FF20C130FCF7A8FCE078A17800020143FF20C530FCF7A0FC97
:4057C0006079217900020143FF20C930FCF798FC10BD70B5A124054624012046FCF78AFC012D07D041084900814202D02046FCF787FC70BD014601221143F5E710B504466D
:4058000040782178000201436820FCF779FCE078A178000201436C20FCF772FC60792179000201437020FCF76BFC10BD10B5044640782178000201435820FCF761FCE07807
:40584000A178000201435C20FCF75AFC60792179000201436020FCF753FC10BD10B50446E820FFF719FB20782246401CC3B20021E820FCF7D1FB10BD10B50C460146B020E7
:40588000FCF73EFC21460248FCF73AFC10BD00001C0A000010B50C460146B020FCF730FCFF2021460530FCF72BFC10BD70B5054688000521FBF7A8FE84B22946B020FCF7E1
:4058C0001FFC21460448FCF71BFC290272310020FCF716FC70BD0000040A000010B504460146B020FCF70CFC210273310020FCF707FC10BD10B504460146B020FCF700FCC2
:40590000210270310020FCF7FBFB10BD10B504460146B020FCF7F4FB210271310020FCF7EFFB10BDF8B505461E4614460F46084600F08AF800902802A10008433043044608
:405940002946B020FCF7DCFB21460098FCF7D8FB0148C0194655F8BD2702002070B50D460146B020FCF7CCFBFF241D342046FCF7C1FB40218843A90101432046FCF7C0FB9E
:4059800070BD70B5A124054624012046FCF7B2FB0222002D01D0104300E0904301462046FCF7AEFB70BD70B50D460146B020FCF7A7FBFF2029460930FCF7A2FBA124240157
:4059C0002046FCF797FB0222002D01D0104300E0904301462046FCF793FB70BD70B50C460546FCF787FB204301462846FCF788FB70BDF8B516460D460746FCF77BFB0146EE
:405A000000202C0003D104E06408401C80B2E207FAD08640A9430E43B1B23846FCF770FBF8BD0000024A1018405C8007800F70472702002010B50146B020FCF761FBFF204E
:405A40002D30FCF757FB10BD8000FF30413070470246FF20052902D201484018805C70472202002010B50146B020FCF749FBFF202930FCF73FFB10BD0A4600B501461046D8
:405A8000FFF7E6FF00BD38B50C46054600216846009109F073F8002804D1009928464C7000F09EFB38BD10B5044680780021FFF73BFE01212046FFF7F1F810BD436E002B5B
:405AC0000CD00B60014660318B781370826E4266CA788A700021816608467047FF20704710B50346446E6033002C04D0846E002C04D0FF2010BD41669A7001E08166DA7056
:405B0000002010BD0021416681667047406E002801D000207047FF20704770B50446C0790D46810610D5DF210840E07100F0B6FD0570218941804034218A8180618AC180EF
:405B4000A18A018101F036F970BD000010B50446FEF782FE01280AD1A1788820054A484380186030007FFDF70BFB012801D000F0A5FA10BD8805002070B50D460446FDF7AE
:405B8000A7F901281CD02079042801D0072816D1E879AE7900020643A0783146FFF7CCFA012813D03246691C204600F035FA02212046FDF7D4FE01212046FFF76FF870BD77
:405BC00001222421204600F0C3FA70BD28214C2001552046FEF712FA70BD70B50D460646FDF753FE002847D120213046FDF7B3FB3446687840346073E87820220002E08116
:405C0000A9780843E0816879010228790843218A814203D0F1791143F1712082E8790102A8790843618A814203D0F1791143F1716082687A0102287A0843A18AE180814250
:405C400003D0F1791143F171A082A08A218A8000FBF7DAFC401E618A80B2814200D9608201213046FDF77EFEE87AA97A000201430022304600F0DCFA70BD0000F8B50C469C
:405C80000546FDF725F9012849D0294EB07AC00709D02846403000900078002805D0102805D01F212EE01A212CE0002700E001272846FEF781FA002823D02E468036082203
:405CC000611C7068FBF741FD7068617A20300172A17A417270682146183008220B31FBF734FD21462846042213313430FBF72DFD39462846FEF742F8002810D1002F0FD0D9
:405D000012E007210322284600F022FAF28A08212846FDF715FB11212846FDF726FEF8BD06212846FDF724FE009801210176F8BD3405002010B5FEF761F810BD38B5044625
:405D40000020009020790D46042801D007281BD12046FDF7BDF8012817D0684608F00EFF002811D10C486A78807A00991040112210402075607E082210436076204600F0DB
:405D800079F92046FDF737FE38BD08222421204600F0DEF938BD0000340500207047000070B506460D460846FEF7E2F804463046FEF747FD00280CD0142C04D32946304672
:405DC00000F0C7F805E00549A0000A58294630469047284608F022FF70BD00008010010070B50D460021002801D0002400E00C4C002C14D020464030C177807F032802D1B5
:405E00002046FEF751FE2046FFF7A0FE142D04D20449A800095820468847FEF77DFD70BDA8050020D010010010B5014640310C4609780E2903D1FEF725F80120207610BDE1
:405E400010B54021095C0F2901D1FEF73EF810BD4021095C0F2902D1002120304177704738B5044600220E4800920D46807A11210840C0060ED52046FEF7F4FC012809D0E6
:405E8000684608F07BFE002803D12046009900F053F938BD2946204600F05BF838BD00003405002010B51021FDF755FA10BD10B54978FDF733FF10BD10B5FEF70EF810BD25
:405EC000012120304177704710B54021095C0C2901D1FEF717F810BD10B54021095C0D2901D1FEF70BF810BD70B5044600790D46052803D0062801D0082802D12046FDF76F
:405F00001FFF68784C21085509212046FDF730FD2046FFF7C8FD2046FCF7DAFF0128A07805D0FFF7E7FC2046FEF79EFE70BDFFF7EDFCF8E710B50446FF21FDF70CFA162164
:405F40004C200155A078FFF7D5FC2046FEF78CFE10BD70B50C460546FEF77EFC002802D02078687570BD21782846FFF78CFD70BD70B5054648780C46032802D12846FDF76C
:405F8000EAFE6078122803D110212846FDF7E3F970BD704738B5044600200D46009004212046FDF7D8F968782076E8780002A081A9780843A08168790002E081297908437F
:405FC000E081607E04210843607680070CD4684608F0D4FD00281CD12046009900F00EF9607E022108436076E079410611D5BF210840E07100F052FB002100900170218909
:406000004180A1898180217E4170E189C18000F0B5FF38BD7047704770B50446C07815460A4600280AD00020E070C1B2A078FFF7A9F8A0782946FFF77BF970BD0120F3E773
:4060400070B50546042008700C468420415908222031601CFBF779FB29462046042238310930FBF772FB0D2229462046FEF792FD002070BD70B5054609200C4608700822C9
:406080000021601CFBF76AFB287D607004480922C07AA07029462046FEF77CFD002070BD340500200B4610B501460B20187001221846FEF76FFD002010BD0000FEB5002417
:4060C000164F03E0002C01D0002500E03D462846FFF71CFD00281BD15F20405D002817D16A4601A92846FFF7E9FC002810D1019869460A7806782946FEF74CFD022E07D16D
:40610000A8780121FFF72AFC09212846FDF730FC641C2406240ED5D0FEBD0000A805002010B50B46122119708178D977014601221846FEF72FFD10BD10B50B46132119709C
:406140008178D977014601221846FEF723FD10BD38B50546002000900C46684608F00EFD002801D0072038BD00980D210170447002222946FEF70EFD002038BD0B4610B583
:4061800001460520187001221846FEF703FD002010BD0B4610B501460620187001221846FEF7F8FC002010BD38B5054600200090684608F0E3FC002801D01F2038BD009CF0
:4061C000022020704C20405D6070A878E0772846FFF769FC022229462046FEF7DBFC38BD10B50B46072119708178D977014602221846FEF7CFFC002010BD000010B50B467E
:406200000A49044608880C221A704A795A709870000AD870C8881871000A5871062221461846FEF7B7FC002010BD000034050020F8B50446403417460E460546E289617B5D
:406240008078FFF79BFA002F0DD100F02BFAE2896979FDF71DFAFFF79FF8608A002800D00120FFF78EFBE388A08A984200D90346628A218AA878FFF763FAA08A218AC000E2
:40628000FBF7C2F981B2ED208000FBF739FFE089E188C0080A30081881B21920C001814200D90146A878FFF7F5FAA8783146FFF751F801212846FEF7F1FCF8BD00B500F09C
:4062C0001FF800BD10B50A4604460B491046FBF79BF94034C01C218A80B2814200D208464900081A81B20548E182C089002802D0884200D2E08210BD7102000074050020C3
:4063000040184008704770B505460C46000702D5A0B2FDF7CDFFE80702D0200EFDF776F870BD70B5054650C8FCF736FDFBF742FD2889C01F0300FBF74DFC0C07130B171AC7
:406340001D0B0B200B100C0BA0B23146FFF7DBFF70BD204600F040FB70BDFDF76DFF70BD2046FCF778FE70BDFCF793FF70BDFDF785FF70BDFDF783FF70BDE0B2FEF790F882
:4063800070BD0000F3B5002483B0064627460094019408200294FBF7ADFE05460640400713D55020FBF7A6FEC0B20090700707D5009CA00803D1FBF763FD012800D10127CD
:4063C000002204200099FEF787FC28074ED5A820FBF790FE0146644842890A434281002208200091FEF778FC300739D50098044340062CD5FF200930FBF77CFEFF201D30FF
:40640000FBF778FE8006C00F0190FF200930FBF771FE00281BD00198002818D1534801214170FF20F130FBF765FE0321090288430146FF20F130FBF763FEA1200001FBF70D
:4064400059FE02210143A1200001FBF759FE00981021884303D1FBF713FD012800D101270098C00602D50220FBF782FFA8070CD53820FBF73FFEC1B2B00702D50804044392
:40648000012700220220FEF727FCE8071DD02020FBF730FEC0B20090F0070BD000980221000604430098884303D1FBF7E9FC012800D101270098800702D50220FBF758FFAF
:4064C000002201200099FEF707FCE80605D50120FBF73EFF1020FEF711FCA80628D5FEF7A1FD234908800120FBF732FF214900200870FF200930FBF7FDFD0090FF201D30C6
:40650000FBF7F8FD80060099C00F00290DD000280BD116494870A1200001FBF7EBFD02210143A1200001FBF7EBFD2020FEF7E6FB680602D54020FEF7E1FB072069460881DB
:406540000020009601944881002F07D069460EC90498002804D0002008F0CCFB05B0F0BD002008F0EBFBF9E7E80500201A0200202C02002015020020F0B587B0054605A822
:406580001E461746019100900C9C04AB06AA02A903A800F0C6F82846FEF73DFE21463046FEF728FE6846017A0398FEF761FC05A904A8FEF737FC6846027E21463846FEF7B7
:4065C00026FC07B0F0BD000070B50548C4782046FCF7FBFE05462046FDF786F9284370BD8805002070B5054884782046FCF7F5FE05462046FDF790F9284370BD880500207F
:40660000F8B5069E1F463478231FDDB23B460095FFF7B2FF3819001FFEF70AFE0520FEF73EFE0446012229460798FEF7E1FE3570E00701D00020F8BD1F20F8BD70B51C46AB
:4066400015460E46FEF7E7FD29463046FEF7D2FD0320FEF724FE012229462046FEF7C8FE1F2070BDF8B5069D079E2C780094FFF783FF0120FEF713FE074600222146304678
:40668000FEF7B6FE3019FEF7C1FE241D2C70F80701D00020F8BD1F20F8BD0000004870474406002008B56A4600210B20FBF74AFD6846007808BD000010B50B4C09492346A1
:4066C0000833A160002142189278002A00D05A54491CC9B20429F6D3FF21A0689A314843A06010BD040302018805002070B5059C049D2070060A6670060CA670000EE070F6
:406700004806D101400E0843207104221946601DFBF71BF82046042229460930FBF715F870BDF8B5079C0E46E178069D09020160A7783943090201606778394309020160CE
:406740002778394301602079611D4006400E30702079C009107004221846FAF7F6FF2146042209312846FAF7F0FFF8BD10B5FEF759FC084A916848408108C3084409414038
:4067800063405940C30F59404008C9070843906010BD00008805002010B5012200F016F810BD000010B5054802780121002A017002D10120FBF7B8F9002010BD3002002093
:4067C00010B5002200F002F810BD0000F8B5204D0F4629781646012904D02978022901D01120F8BD0C2148431A494418E078A178884201D31220F8BDFAF728FE62780C2381
:4068000061685A4351188CCF8CC1E178601C491CE1706178491CC9B20170A278914201D1002101706868401C68602878012803D0FAF706FE0020F8BD02202870FAF700FED8
:40684000002E03D00020FBF76FF9F3E70120FAE730020020C407002010B51148002101704160C0220F48FAF779FF0E4890220021C030FAF773FF182200210B48FAF76EFF09
:406880000948102181700C21817306494160C03101610649816006494161FBF72DF910BD3002002074060020C40700202363000061780000F8B50025114C01262F46207862
:4068C000002811D001280FD0022802D0032813D111E000F017F8FAF7B9FD6068002800D12670FAF7ADFD07E02078002806D02078012803D000E02770002DE0D00020F8BDB9
:4069000030020020FEB51F4D1F4E0027FF2400200C2141438919C978002901D0044602E0401C0228F4D3FF2C2AD0FAF78FFD0C204443A41921780C2260685143081801466C
:406940000EC9029301920091076047608760E078401EE0702078401CC0B22070A178884200D127706868002802D06868401E6860FAF766FDA1680029C8D068468847C5E744
:40698000FEBD000030020020C407002010B5830A082B02D008F0D8F910BD00F0CFF810BD10B50C460146207800F042FC0028204603D000F007FF002010BD00F0B8FB1F2024
:4069C00010BD10B5820A082A02D008F06BFA10BD00F056F910BD0000F8B5044640782578000205430020694608702846FFF7E9FF012827D16946A0780978884222D01C498C
:406A00008D4208D0891D8D4205D0C91C8D4202D0C91C8D4204D11221284600F071F80CE00022022805D32079E178000201430A05120D12212846FFF7A9FF204608F0C6F88B
:406A40001220F8BD0B4EA80A08282A4631460AD0E01C08F071FA204608F0B8F83146284600F00AF8F8BDE01C00F018F9F3E700000D200000DC070020F8B50D4604460020C9
:406A8000694608701A48844208D0801D844205D0C01C844202D0C01C844201D101200870A00A08280A462946204609D008F096FA064668460078002805D0012815D110E028
:406AC00000F006F9F4E70022002D05D068782978000201430A05120D31462046FFF756FF03E03146204600F00BF83046F8BD00000D2000000148407A704700003806002068
:406B0000F8B5054600200E4600906946082000F007FB002801D00720F8BD009C0F202070A670FFF7E7FFE0702571280A6071042060702146FF20FFF733FFF8BDF7B5064636
:406B400082B000204B4A4C4B00900420B11AF718964218D008DC002F0FD0012F0FD0052F0FD00D2F12D10CE0032908D005290CD006290AD0072909D101E0072006E00C20EF
:406B800004E0052002E00B2000E006206946001D00F0C6FA002802D0072005B0F0BD009D31462846039A00F085F8334804241338301803D0052801D0062805D10499A9716C
:406BC0000499090AE9710624039800284BD12949891F701A8E4227D006DC002F0BD0012F11D0052F3FD11CE0062823D009282CD00D2838D12FE028191B2181700021C1707F
:406C0000A41C042012E02E19B01C08220021FAF7A5FD1A481122817A1140B170C07AF07020E0FCF72DF901E0FCF74CF929198870641C18E02919891C0498FCF731F9002845
:406C400001D068710FE0641D0DE02819801C082107F00AFD06E009492819801C08221C31FAF773FD08346C702946FF20FFF798FE93E7000015200000FEDFFFFF3405002007
:406C8000C0B21F2806D8401E034AC0B2105C0870012070470020704794120100D2B21F2A05D8034B9200D218403AD26B104770479C11010070B504460E2016460D46207023
:406CC000FFF718FFA070E570280A2071667170BD70B50D46C1B2012014461F2911D88E000848214630184038C26B28469047002807D104482146F83830184038C26B28460F
:406D0000904770BD1812010070B5154C0546212200212046FAF722FD212212492046FAF714FD114A1121907A0840C3060F48017802D53023194301E0CF2319400170907ACE
:406D4000C007207F02D00721084301E0C008C0002077212221462846FAF7F7FC70BD000044060020B3120100340500206406002010B5FCF72DF910BD10B5FCF746F910BDBD
:406D8000002070470120704710B5FCF78EF910BD0020704710B5FCF78AF910BD0249007848710020704700003806002010B5FCF79AF910BD38B504460020009069460E20AC
:406DC00000F0AEF9002801D0072038BD00993E200870032088702078C870A07808716088000A487120798871A088000AC871A0790872E088000A4872207A88722089000A4E
:406E0000C8720A2048700320FFF7CAFD38BD38B50546002000906946172000F081F9002801D0072038BD009C3E2020700120A0702878E070A878207168882946000A60717E
:406E40006878A0712879E0712046083006220C31FAF77BFCA879A073E8882146000AE073287A20742889000A6074A87AA0746889000AE07468792075132060700120FFF782
:406E80008FFD38BDF8B5044600200E46009015466946082000F044F9002801D00020F8BD0099082008708E70CC70200A08714D7104204870FF20FFF773FDF8BD38B50C4600
:406EC0000021054600916946072000F029F9002801D0002038BD0099302008708D70CC70200A087103204870FF20FFF759FD38BD38B50546002000906946112000F010F966
:406F0000002801D0002038BD009C3E2020700520A0702878E07028880822000A2071601D6968FAF712FCA9680D200A7862734978A173607021460520FFF732FD38BD38B505
:406F4000054600200C4600906946092000F0E8F8002801D0002038BD00991320087001208870CD70280A08714C71200A8871052048700722042000F0EDFBEBE738B50446DE
:406F80000020009069460C2000F0CAF8002801D0002038BD00990C20087020788870A078C8706088000A08716078487120798871A088000AC871A0790872E088000A4872B1
:406FC00008204870FF20FFF7EBFC38BD38B50446002000906946062000F0A2F8002801D0072038BD0099572008708C70200AC87002204870FF20FFF7D3FC38BDF8B50646D3
:4070000000200C46009015466946082000F088F8002801D00020F8BD0099052008708E70CC70200A08714D7104204870FF20FFF7B7FCF8BDFEB507460020009010480E4658
:40704000019015466946082000F06AF8002801D00720FEBD009C324620460199FFF72AFEA771380AE0710620002E03D1290A25726172082060702146FF20FFF791FCFEBDC2
:407080007B0C0000F8B5054600200E4600900C4F6946062000F044F8002801D00720F8BD009C324639462046FFF704FEA571280AE071062060702146FF20FFF771FCF8BDFE
:4070C0007C0C000010B5FDF721FA10BD10B5FDF737FA10BDF8B505460020074600900D4E6946142000F01CF8002801D00720F8BD009C3A4631462046FFF7DCFD1022A01DED
:40710000A918FAF722FB142060702146FF20FFF747FCF8BD1720000010B5FBF781FF10BD0A4610B5C1B2104607F0E0FC10BD10B507F056FD10BD0000F8B50546C078AF781C
:40714000164C00020743A07D26468000203E8019103004222946FAF7F8FAA07DB38E800082191032291D042B16D03550A07D0023400080190784A57D204610302B54A07D06
:40718000401CC0B2A075042800D3A375B08E401CB086104600F007FBF8BD000020080020FEB5144C0025E17D204610300D54E07D26468000203E305807F026FDE07D401C21
:4071C000C0B2E075042800D3E575B08E401EB0860948C07900280CD00095019511206A4602951081558129460A460020029B07F0A5FDFEBD200800203806002010B507497A
:4072000000208875C8752039888605490872487288728882FAF702FE10BD0000200800207808002010B5FFF7E9FF002010BD00001B4B10289A792DD00CDC0C2823D004DC34
